:100000000C946A000C94C4090C949D090C94920001
:100010000C9492000C9492000C9492000C94920018
:100020000C9492000C9492000C9492000C94430A4D
:100030000C9492000C9492000C9492000C949200F8
:100040000C9453090C9492000C94110A0C94EB0933
:100050000C9492000C9492000C9492000C949200D8
:100060000C9492000C9492000000010008004000E3
:1000700000010004050D00000000240027002A00F4
:1000800000000000230026002900000000080002F4
:10009000010000030407000000000000000001024E
:1000A0000408102040800102040810200102040806
:1000B000102000000000250028002B000404040488
:1000C0000404040402020202020203030303030302
:1000D000770B0E0F11241FBECFEFD8E0DEBFCDBFD0
:1000E00011E0A0E0B1E0E6EFF2E202C005900D926F
:1000F000A83AB107D9F725E0A8EAB1E001C01D92FE
:10010000A632B207E1F710E0C9E6D0E004C02197BB
:10011000FE010E942E10C836D107C9F70E94AC0C10
:100120000C946E110C9400008F929F92AF92BF922C
:10013000CF92DF92EF92FF924C01AA24BB24C72EEC
:10014000D82EE92EFF24BC2DA62F20911404482D73
:10015000222391F0A22FB0E0A89DF001A99DF00DFF
:10016000B89DF00D11244F2F2C9D60011124BD2D41
:10017000269FC0011124A92FE0911A048091150433
:100180009091160420911704E21721F0E80FF92F3F
:10019000F11D1082E0911704E80FF92FF11D408343
:1001A000E0911804E80FF92FF11DB0832091190494
:1001B000820F911DFC01A083FF90EF90DF90CF9004
:1001C000BF90AF909F908F900895833081F028F476
:1001D000813099F08230A9F008958730A9F08830F5
:1001E000C9F08430B1F4809180008F7D03C080918C
:1001F00080008F7780938000089584B58F7784BDC9
:10020000089584B58F7DFBCF8091B0008F77809368
:10021000B00008958091B0008F7DF9CFCF93DF9328
:10022000282F30E0F901E657FF4F8491F901E2569B
:10023000FF4FD491F901E454FF4FC491CC23A1F0B6
:1002400081110E94E500EC2FF0E0EE0FFF1FE05857
:10025000FF4FA591B491EC91ED2381E090E009F47A
:1002600080E0DF91CF91089580E090E0FACF1F9376
:10027000CF93DF93282F30E0F901E657FF4F8491A9
:10028000F901E256FF4FD491F901E454FF4FC491B4
:10029000CC23A9F0162F81110E94E500EC2FF0E08D
:1002A000EE0FFF1FEE54FF4FA591B4918FB7F89456
:1002B000EC91111108C0D095DE23DC938FBFDF9144
:1002C000CF911F910895DE2BF8CFCF93DF9390E06D
:1002D000FC01E256FF4F249184549F4FFC0184910E
:1002E0008823C9F090E0880F991FFC01EA58FF4F5E
:1002F000A591B491FC01EE54FF4FC591D4916111C9
:100300000DC09FB7F8948C91209582238C9388819F
:10031000282328839FBFDF91CF910895623051F445
:100320009FB7F8943C91822F809583238C93E8812A
:100330002E2BEFCF8FB7F894EC912E2B2C938FBFF1
:10034000EACF8E3008F08E508770806480937C00F6
:1003500080917A00806480937A0080917A0086FD93
:10036000FCCF809178009091790008953FB7F89480
:100370008091C3019091C401A091C501B091C601C3
:1003800026B5A89B05C02F3F19F00196A11DB11DF0
:100390003FBFBA2FA92F982F8827BC01CD01620F2C
:1003A000711D811D911D42E0660F771F881F991FE7
:1003B0004A95D1F708950F931F93CF93DF93CDB74D
:1003C000DEB729970FB6F894DEBF0FBECDBF0E94EF
:1003D000B60100911B0410911C0420911D04309162
:1003E0001E04601771078207930740F460931B0493
:1003F00070931C0480931D0490931E0400911B04B1
:1004000010911C0420911D0430911E04601B710B7F
:10041000820B930B6C32714081059105C0F2F89408
:1004200080911004909111049A838983E0911504BE
:10043000F0911604DF0111968081898790910C0458
:10044000E0911F04F091200480912104992309F484
:1004500045C09081982B98879081809589238F83C0
:100460008F818C8388E08B8358856F8149853B81A0
:100470002C8189819A81508347FD252F3A952083CD
:10048000262F39F0441F00C000006083000000C028
:10049000F2CF38E04D9160830000019761F7F0934F
:1004A0002004E0931F0449873B832C839A8389832C
:1004B00078940E94B60160931B0470931C0480938F
:1004C0001D0490931E0429960FB6F894DEBF0FBE4C
:1004D000CDBFDF91CF911F910F9108959081982BFF
:1004E00098879081809589238F838F818E8388E080
:1004F0008D8358856F8149853D812E8189819A81BF
:10050000508347FD252F00C000C0208300C000C0DD
:1005100000C000C000C060830000262F3A9541F063
:10052000441F000000C000C000C000C000C0E8CFF1
:1005300038E04D9100C0608300C0019709F7F09347
:100540002004E0931F0449873D832E83AFCF8F9211
:100550009F92AF92BF92CF92DF92EF92FF926B0188
:100560007C010E94B6014B015C01C114D104E1047D
:10057000F104B9F00E94B601681979098A099B094A
:10058000683E73408105910580F321E0C21AD108CD
:10059000E108F10888EE880E83E0981EA11CB11CCA
:1005A000E4CFFF90EF90DF90CF90BF90AF909F90FF
:1005B0008F9008952FB7F8946091BF017091C0019A
:1005C0008091C1019091C2012FBF08950895AF920B
:1005D000BF92CF92DF92EF92FF920F931F93CF9330
:1005E000DF936C017B018B01040F151FEB015E0192
:1005F000AE18BF08C017D10759F06991D601ED9127
:10060000FC910190F081E02DC6010995892B79F7C5
:10061000C501DF91CF911F910F91FF90EF90DF9077
:10062000CF90BF90AF900895FC01538D448D252F3E
:1006300030E0842F90E0821B930B541710F0CF967C
:10064000089501970895FC01918D828D981761F0AE
:10065000A28DAE0FBF2FB11D5D968C91928D9F5FC5
:100660009F73928F90E008958FEF9FEF0895FC01A4
:10067000918D828D981731F0828DE80FF11D858D57
:1006800090E008958FEF9FEF0895FC01918D228DEA
:10069000892F90E0805C9F4F821B91098F7399276F
:1006A000089587EC91E00E94450321E0892B09F42D
:1006B00020E0822F089580E090E0892B29F00E94AD
:1006C000510381110C9400000895FC01A48DA80F22
:1006D000B92FB11DA35ABF4F2C91848D90E0019684
:1006E0008F739927848FA689B7892C93A089B189A4
:1006F0008C91837080648C93938D848D981306C045
:100700000288F389E02D80818F7D80830895EF92A8
:10071000FF920F931F93CF93DF93EC0181E0888FBB
:100720009B8D8C8D98131AC0E889F989808185FF8B
:1007300015C09FB7F894EE89FF896083E889F9892D
:1007400080818370806480839FBF81E090E0DF912F
:10075000CF911F910F91FF90EF900895F62E0B8D82
:1007600010E00F5F1F4F0F731127E02E8C8D8E113D
:100770000CC00FB607FCFACFE889F989808185FFA4
:10078000F5CFCE010E946503F1CFEB8DEC0FFD2F6D
:10079000F11DE35AFF4FF0829FB7F8940B8FEA895F
:1007A000FB8980818062CFCFCF93DF93EC01888D6E
:1007B0008823B9F0AA89BB89E889F9898C9185FDDC
:1007C00003C0808186FD0DC00FB607FCF7CF8C916A
:1007D00085FFF2CF808185FFEDCFCE010E946503BA
:1007E000E9CFDF91CF91089508958CE30895CF93D9
:1007F000DF93FC01228133812230310569F0EC0165
:10080000678D858D0E94370160E08C8D0E943701D5
:1008100082E090E09B838A83DF91CF91089581E00D
:1008200008952FB7F89491E0662339F092E0613093
:1008300021F082E08093B30190E08091B201892B96
:100840008093B2018091B301811103C081E0809354
:10085000B3012FBF08958091B301882361F09FB742
:10086000F8942091B3018091B101213019F48DBB2E
:100870009FBF08958FBF0895FC0130852185809129
:10088000B301882381F09FB7F8948091B301813040
:1008900069F48DB38093B1014DB38091B20180951D
:1008A00084238DBB9FBF3CBD2DBD08959093B101A6
:1008B000FACF9FB7F8948091B001882319F0815046
:1008C0008093B0018091B001811105C08CB58F7B00
:1008D0008CBD1092B3019FBF08958CB58F778CBDEE
:1008E00008958CB580688CBD08956EBD00000DB470
:1008F00007FEFDCF8EB50895FC01738362830895D2
:10090000FC01778366830895FC01758364830895F1
:1009100008950895FC01848995890895FC018289D0
:1009200093890895FC0180899189089580E0089554
:10093000FC01738362830895FC0182819381089591
:10094000FC01868597850895FC0181850895FC0149
:1009500080850895FC0187810895FC0186810895B2
:100960004095FC0125854223642B65870895FC0191
:1009700064870895FC0163870895FC0162870895E8
:10098000FC0164830895FC01658308958F929F9212
:10099000AF92BF92CF92DF92EF92FF92CF93DF930D
:1009A000EC016B010E94DA024B015C01F12CE12C9D
:1009B0000E94DA02681979098A099B096C157D057C
:1009C0008E059F0580F48A819B81039789F381E0DE
:1009D000DF91CF91FF90EF90DF90CF90BF90AF90DD
:1009E0009F908F90089580E0F3CFFC0122813381A6
:1009F00023303105D1F381E008954F925F926F92D9
:100A00007F928F929F92AF92BF92CF92DF92EF929E
:100A1000FF920F931F93CF93DF93EC016B018A0139
:100A20000E94DA022B013C01F12CE12C4801B12C8F
:100A3000A12C0E94DA0264197509860997096C15C0
:100A40007D058E059F0588F4E881F9810680F78190
:100A5000E02DCE010995811109C00115110549F359
:100A6000C501B4010E94A702E4CF80E0DF91CF91DD
:100A70001F910F91FF90EF90DF90CF90BF90AF90BC
:100A80009F908F907F906F905F904F900895CF923E
:100A9000DF92EF92FF920F931F93CF93DF93EC01BE
:100AA0008B016B01F12CE12CE881F9810680F78143
:100AB000E02DCE010995811108C001151105A1F3A2
:100AC000C701B6010E94A702EFCFDF91CF911F911E
:100AD0000F91FF90EF90DF90CF900895862720E14F
:100AE000829FB00111248627482F50E0292F382FEC
:100AF000CA0164E0959587956A95E1F7282739271B
:100B0000CA0173E0880F991F7A95E1F7822793272E
:100B100008956F927F928F929F92AF92BF92CF92E1
:100B2000DF92EF92FF920F931F93CF93DF934D339A
:100B300088F0712C872DDF91CF911F910F91FF903D
:100B4000EF90DF90CF90BF90AF909F908F907F906D
:100B50006F900895042F5B01EC01E881F981008812
:100B6000F189E02D0995E881F9810688F789E02D62
:100B7000CE010995782E8823E1F27E0129E7E20E65
:100B8000F11C17E0100F612F8FEF9FEF0E946E0591
:100B9000E12FF0E064E0F595E7956A95E1F7EA5E0C
:100BA000FE4F2081F70120831F70E12FF0E0EA5E05
:100BB000FE4F2081FE01E658FF4F20831A85612FEA
:100BC0000E946E05E12FF0E074E0F595E7957A95C7
:100BD000E1F7EA5EFE4F2081FE01E558FF4F2083DA
:100BE0001F70E12FF0E0EA5EFE4F2081FE01E45825
:100BF000FF4F20831B85612F0E946E05E12FF0E0DF
:100C0000A4E0F595E795AA95E1F7EA5EFE4F20810D
:100C1000FE01E358FF4F20831F70E12FF0E0EA5EF2
:100C2000FE4F2081FE01E258FF4F20831C85612F7B
:100C30000E946E05E12FF0E0B4E0F595E795BA95D6
:100C4000E1F7EA5EFE4F2081FE01E158FF4F20836D
:100C50001F70E12FF0E0EA5EFE4F2081FE01E058B8
:100C6000FF4F20831D85612F0E946E05E12FF0E06C
:100C700024E0F595E7952A95E1F7EA5EFE4F20819D
:100C8000FE01EF57FF4F20831F70E12FF0E0EA5E77
:100C9000FE4F2081FE01EE57FF4F20836501470183
:100CA00010E0A00EB11EF2E08F0E911CCA14DB04FE
:100CB000E9F0F60161906F01662D0E946E05E62D48
:100CC000F0E054E0F595E7955A95E1F7EA5EFE4FBE
:100CD0002081F4012087F6013197E081EF70F0E088
:100CE000EA5EFE4F2081F4012187DDCF98012B5F62
:100CF0003F4F220F331F80959095D701A20FB31F4E
:100D0000FC0154E0F695E7955A95E1F7EF70FF275F
:100D1000EA5EFE4F30813C93F801EE0FFF1FBF01EA
:100D20006E0D7F1DAC014F7055274A5E5E4FFA0174
:100D30003081FB0133870A5F1F4F000F111F0E0D1B
:100D40001F1DFC01EF2FFF27E295EF70EA5EFE4FBB
:100D50003081F8013083E92FFF27EF70FF27EA5E2B
:100D6000FE4F808113968C93FE01E150FF4F245F6C
:100D700020838A819B81039709F4DCCEE159F10934
:100D8000108231961082319610826F8D81E0682733
:100D90008D8D0E94370183E090E09B838A83CACEC9
:100DA000EF92FF921F93CF93DF93FC012281338157
:100DB0002330310509F452C0EC01828193810497FC
:100DC00061F0678D858D0E94370160E08C8D0E94F7
:100DD000370184E090E09B838A8388A18823E9F02F
:100DE00010E08FEF9FEF7E01FDE6EF0EF11CF701A3
:100DF0002081121740F4FE01E10FF11D61A50E9450
:100E00006E051F5FF4CF883B904F71F088899989F8
:100E10000196998B888B19A218A289A1DF91CF9195
:100E20001F91FF90EF9008958AA58E838BA58F83E5
:100E30008CA588878DA589878D81811107C09E81AA
:100E40008C81981719F08E818F3F31F78A899B89A1
:100E500001969B8B8A8B81E089A3DECF80E0DECF79
:100E6000CF93DF9382E00E940E01EC0181E090E0DD
:100E7000209711F090E080E09093A9018093A80161
:100E800083E00E940E0121E030E0892B11F030E078
:100E900020E03093AB012093AA0184E00E940E0170
:100EA00021E030E0892B11F030E020E03093AD01FB
:100EB0002093AC0185E00E940E0121E030E0892BF7
:100EC00011F030E020E03093AF012093AE01CD2B44
:100ED00031F082E090E09093A9018093A801DF9126
:100EE000CF910895CF93DF93EC01862F68837983A8
:100EF0005B834A8361E00E94650160E088810E9413
:100F0000370160E08A81DF91CF910C9465010C94E8
:100F1000D010FC0101900020E9F73197AF01481B88
:100F2000590BBC0182E294E00E94890582E294E0C0
:100F30000C94F5040E945911DF92EF92FF920F93E7
:100F40001F93CF93DF93EC017B018A01E881F98144
:100F50000680F781E02D0995D82E8823D1F0E11481
:100F6000F104B1F00115110599F0FE01E359FF4FAD
:100F700080818750F8019081891708F48083F801F7
:100F8000408150E0BE01625D7F4FC7010E945E114B
:100F900019A28D2DDF91CF911F910F91FF90EF90AE
:100FA000DF9008954F925F926F927F92AF92BF92BF
:100FB000CF92DF92EF92FF921F93CF93DF9300D0F7
:100FC000CDB7DEB77C019093B5018093B40161E0A9
:100FD000FC01848D0E94650160E0F701838D0E9411
:100FE000650161E0F701858D0E946501C7010E94DE
:100FF000F703F701C18CD28CC114D10409F444C0A9
:10100000F12CE12C83E0CC0CDD1CEE1CFF1C8A953E
:10101000D1F79AE6A92E90E0B92E11E0412C24E2F6
:10102000522E24EF622E712C42E050E0B501CE0129
:1010300001960E94C20F29813A8150E040E0C3012D
:10104000B2010E94FD0FCA01B901A70196010E94D9
:10105000FD0FDA01C9010297A109B1098D3F9F4F28
:10106000A105B10510F11F5F62E0A60EB11C17309B
:10107000D9F6223031054105510530F021153105F1
:1010800081E04807510598F081E00F900F90DF91C3
:10109000CF911F91FF90EF90DF90CF90BF90AF90D6
:1010A0007F906F905F904F900895163069F3109283
:1010B000800088E08093810080918100182B10933C
:1010C0008100309389002093880080916F008260B6
:1010D00080936F00D9CF0F931F93CF93FC01828130
:1010E000938140E054E264EF70E084309105C1F0F8
:1010F00040E052E16AE770E08330910589F040E01A
:1011000059E06DE370E08230910551F040E452E423
:101110006FE070E0019721F440E854E86EE170E080
:10112000A481B58186819781009709F466C08130DA
:10113000910509F45EC08230910509F45CC0039703
:1011400009F05BC08CE000E012E12AE730E090E0BB
:10115000401751076207730740F436952795179596
:1011600007959F5F9630A1F797E021E0292730E5AA
:10117000119709F430E72695282B232B208790958B
:1011800091709187CFB7F8948091B001811127C0F9
:10119000E6ECF0E08491E8EAF0E09491E82FF0E0EA
:1011A000EE0FFF1FEA58FF4FA591B491EC91E92390
:1011B00021F461E08AE00E94370161E08AE00E9448
:1011C00065018CB580618CBD8CB580648CBD61E09F
:1011D0008DE00E94650161E08BE00E9465018091D5
:1011E000B0018F5F8093B001CFBFCF911F910F915E
:1011F000089584E0A8CF88E0A6CF80E0A4CF8F92A6
:101200009F92AF92BF92CF92DF92EF92FF92CF93D5
:10121000DF93FC012789308D232BB9F1EC010E946B
:10122000DA024B015C0189E0C82ED12CE12CF12CB3
:10123000E881F981008CF18DE02DCE01099588239C
:1012400021F10E94DA02AB01BC01481959096A096F
:101250007B098F89988DB0E0A0E084179507A607D9
:10126000B707F8F00E946A0FA70196010E94CB0F02
:101270009B01AC012F5F3F4F4F4F5F4FA4E6B0E0A3
:101280000E94EA0F0E94A702D3CF81E0DF91CF91A5
:10129000FF90EF90DF90CF90BF90AF909F908F9096
:1012A000089580E0F3CF1F920F920FB60F92112492
:1012B0002F933F938F939F93AF93BF938091BF01E1
:1012C0009091C001A091C101B091C2013091BE01C5
:1012D00023E0230F2D3758F50196A11DB11D209352
:1012E000BE018093BF019093C001A093C101B09350
:1012F000C2018091C3019091C401A091C501B09138
:10130000C6010196A11DB11D8093C3019093C40134
:10131000A093C501B093C601BF91AF919F918F91EA
:101320003F912F910F900FBE0F901F90189526E8B8
:10133000230F0296A11DB11DD2CF1F920F920FB69F
:101340000F9211242F933F934F935F936F937F934B
:101350008F939F93AF93BF93EF93FF93E09102011D
:10136000F09103010995FF91EF91BF91AF919F918A
:101370008F917F916F915F914F913F912F910F903E
:101380000FBE0F901F9018951F920F920FB60F92DD
:1013900011242F933F934F935F936F937F938F937A
:1013A0009F93AF93BF93EF93FF93E0910001F09170
:1013B00001010995FF91EF91BF91AF919F918F919D
:1013C0007F916F915F914F913F912F910F900FBE41
:1013D0000F901F9018951F920F920FB60F92112425
:1013E0002F933F934F935F936F937F938F939F932D
:1013F000AF93BF93EF93FF9387EC91E00E94650357
:10140000FF91EF91BF91AF919F918F917F916F91DC
:101410005F914F913F912F910F900FBE0F901F90B2
:1014200018951F920F920FB60F9211242F938F933E
:101430009F93EF93FF93E091D701F091D8018081C2
:10144000E091DD01F091DE0182FD1BC09081809171
:10145000E0018F5F8F732091E101821741F0E091ED
:10146000E001F0E0E953FE4F958F8093E001FF919A
:10147000EF919F918F912F910F900FBE0F901F9022
:1014800018958081F4CF1F920F920FB60F921124FE
:10149000CF92DF92EF92FF920F931F932F933F9380
:1014A0004F935F936F937F938F939F93AF93BF936C
:1014B000CF93DF93EF93FF93C091B401D091B50127
:1014C0008A819B81049709F0C7C08B8D0E940E0111
:1014D00021E0892B09F420E08E8D922F9827281780
:1014E00019F08BA18F5F8BA38AA18917F1F18CA1D1
:1014F0002DE1803508F42BE08CA1820F8CA39AA3F8
:101500008CA1803A08F46DC08EA19FA19695879515
:101510009FA38EA38BA1853028F08EA19FA19860F8
:101520009FA38EA38CA1805A8CA31BA28DA188237C
:1015300009F486C088A58F5F88A78C3008F451C055
:101540008EA19FA1982F9F73892F8695869588706D
:1015500028E0280F821769F0E82FF0E0EA5EFE4FDE
:101560003081931739F08F5FF5CF8CA18C5E8CA3FF
:10157000C7CF80E090E1899F900111248EA19FA1A7
:1015800036E0969587953A95E1F7482F959587959A
:1015900095958795887098E0980F981749F0E82FEF
:1015A000F0E0EA5EFE4F5081451719F08F5FF5CFEE
:1015B00080E0822BDE01A359BF4F9C91AE014459BC
:1015C0005F4F911127C0FA0180839081973018F006
:1015D00090819434F8F01DA2888999890196998B9D
:1015E000888BFF91EF91DF91CF91BF91AF919F9148
:1015F0008F917F916F915F914F913F912F911F91AB
:101600000F91FF90EF90DF90CF900F900FBE0F9053
:101610001F9018952C9191E0920F9C932C0F3D2FC9
:10162000311DF90181A79C91DA018C91981730F056
:101630001DA281E088A3CE010E94F70318A6D1CF96
:101640008EA19FA188339B4061F681E08DA318A6EF
:10165000C359DF4F1882C5CF8A819B81039709F652
:101660008E0100591F4FF801808191E0980F9083FF
:10167000811113C06E01FEE6CF0ED11CD601EC9194
:10168000AF56BF4F8C91E81778F0CE010E94F70358
:101690008C899D8901969D8B8C8BD8018C9188308B
:1016A00008F49FCF1C929DCFEC0FFD2FF11DEF583A
:1016B000FF4F608170E07E01BFE6EB0EF11CF70189
:1016C000808191E0980F908302C0759567958A9507
:1016D000E2F761708C8D0E943701D7018C918630C2
:1016E000E0F21C92F60180818F5F8083D6CFCF938A
:1016F000DF93CDB7DEB728970FB6F894DEBF0FBEE5
:10170000CDBF1092CA011092C90188EE93E0A0E00B
:10171000B0E08093CB019093CC01A093CD01B09326
:10172000CE018AE291E09093C8018093C70185ECD5
:1017300090E09093D4018093D30184EC90E0909357
:10174000D6018093D50180EC90E09093D8018093EE
:10175000D70181EC90E09093DA018093D90182EC7B
:1017600090E09093DC018093DB0186EC90E0909315
:10177000DE018093DD011092E0011092E1011092F0
:10178000E2011092E3011092670210926602109239
:1017900069021092680210926B0210926A028CE346
:1017A00091E0909365028093640280E580936C02DF
:1017B00010926D0210922504109224048FEF8093F2
:1017C000260480932C0480932D0410922E041092F2
:1017D0002F041092330410923204109235041092A8
:1017E0003404109237041092360410923A04109286
:1017F000390486E591E0909323048093220480EAE3
:101800009FE090933C0480933B0492E090933D04CE
:1018100089E080933E048AE080933F041092400464
:101820001092410488E0EEE0F1E0DE0111960190B3
:101830000D928A95E1F788E0FE013196A3E9B4E0C4
:1018400001900D928A95E1F710920D041092140404
:1018500010921B0410921C0410921D0410921E047E
:1018600081E080931A0480931704109218049093D7
:10187000190480930C0483E090E09093110480930A
:1018800010040E943410909316048093150400975E
:1018900009F459C023E0DC011D922A95E9F781E0A3
:1018A00090E090930F0480930E048BE090E090936F
:1018B00013048093120480910D04882341F061E0A9
:1018C0008BE00E94650160E08BE00E943701E7EC4D
:1018D000F0E0E491F0E0EE0FFF1FEE54FF4F859132
:1018E00094919093200480931F04E9EAF0E0E4913E
:1018F000E0932104EAEEF2E088E894E028E7AF0103
:1019000048575109DA01322F1D923A95E9F71082B2
:101910001182128213821482158216821782108617
:1019200011861286138614861586E657FF4F8E178A
:101930009F0729F728960FB6F894DEBF0FBECDBFDC
:10194000DF91CF910895109211041092100410921B
:101950000F0410920E04A9CF789484B5826084BDE0
:1019600084B5816084BD85B5826085BD85B58160A3
:1019700085BD80916E00816080936E001092810021
:1019800080918100826080938100809181008160DC
:10199000809381008091800081608093800080919D
:1019A000B10084608093B1008091B0008160809329
:1019B000B00080917A00846080937A0080917A00F0
:1019C000826080937A0080917A00816080937A00AF
:1019D00080917A00806880937A001092C100E09133
:1019E000D701F091D80182E08083E091D301F0919A
:1019F000D4011082E091D501F091D6018FEC808363
:101A00001092DF01E091DB01F091DC0186E0808340
:101A1000E091D901F091DA01808180618083E091C9
:101A2000D901F091DA01808188608083E091D90149
:101A3000F091DA01808180688083E091D901F09192
:101A4000DA0180818F7D808382E294E00E94D20758
:101A5000811110C04BE050E062E971E087EC91E049
:101A60000E94E70242E050E06EE971E087EC91E00D
:101A70000E94E702809112049091130497FD08C020
:101A800061E00E94650160E0809112040E943701CC
:101A900081E080930D0462E082E00E94650162E0D3
:101AA00083E00E94650162E084E00E94650162E0DB
:101AB00085E00E9465010E94300780910E0490919C
:101AC0000F04892B31F064E674E684E690E00E940E
:101AD00094008091150490911604892B11F00E94B6
:101AE000DB0168EE73E080E090E00E94A702409185
:101AF00010045091110470E060E080911504909101
:101B000016040E9467114FE050E06CE070E08EE632
:101B100092E00E94720740E150E06AE070E088EFD6
:101B200092E00E94720741E150E068E070E082E8D4
:101B300093E00E9472074BE4C42ED12C22242394FC
:101B4000312C0E9430070E94DA028090BA019090F6
:101B5000BB01A090BC01B090BD01AB01BC01481914
:101B600059096A097B09423051056105710508F47C
:101B700040C02091B8013091B90121303105A1F464
:101B80002091B6013091B7012E5F3F4F3093B701DE
:101B90002093B6012F3F3105F9F0F4F082E090E098
:101BA0009093B9018093B8012091B8013091B901A7
:101BB0002230310589F42091B6013091B7012150CE
:101BC00031093093B7012093B6011216130624F0A1
:101BD0001092B9011092B801D501C4010296A11D5D
:101BE000B11D8093BA019093BB01A093BC01B09347
:101BF000BD01C091B601D091B70180910E049091C2
:101C00000F04892B31F06C2F70E090E080E00E948F
:101C100094008091150490911604892B11F00E9474
:101C2000DB01CD2B61F4409110045091110470E060
:101C300060E080911504909116040E9467110EE6F1
:101C400012E0E8018A810E94A101FE01EC57FF4FDA
:101C5000092E000CAA0BBB0B80839183A283B38354
:101C6000C657DF4FF4E0CC30DF0761F761E08091C9
:101C70006E020E94370161E08091F8020E943701F4
:101C800061E0809182030E943701C6010197F1F75C
:101C9000CAEED2E0F12CE12CC6010197F1F7F80170
:101CA00082810E94A101AC01990F660B770B888598
:101CB0009985AA85BB85841B950BA60BB70B8887D6
:101CC0009987AA87BB8760E0F80180810E9437016D
:101CD000488559856A857B8588819981AA81BB81E0
:101CE0008C809D80AE80BF80840E951EA61EB71E80
:101CF000FC013196EE0FFF1FEE0FFF1F3AE8732E27
:101D00007E9C90017F9C300D1124E20FF31FE2595D
:101D1000FD4F408051806280738084189508A6082A
:101D2000B7088C829D82AE82BF82408351836283DA
:101D300073830196A11DB11D8E319105A105B105D9
:101D400008F065C088839983AA83BB8381E024EB74
:101D500082169104A104B1040CF480E094EB89167E
:101D60009104A104B1040CF457C09C85911154C096
:101D7000E1E0ED878C87FFEFEF1AFF0A06571F4F50
:101D8000C657DF4F23E0E216F10409F085CF61E08A
:101D900080916E020E94370161E08091F8020E94FA
:101DA000370161E0809182030E9437018091F70240
:101DB000882341F081EA91E00E9489073092B901BD
:101DC0002092B80180918103882341F083EA91E059
:101DD0000E9489073092B9012092B80180910B04CA
:101DE000882341F085EA91E00E9489073092B90189
:101DF0002092B80180E090E0892B09F4A2CE0E94E5
:101E00005103882309F49DCE0E9400009ACE1882C7
:101E100019821A821B829ACF1D86ACCF809115043D
:101E2000909116040E94D010809112049091130496
:101E300097FD03C060E00C94650108958F929F9216
:101E4000AF92BF92CF92DF92EF92FF92CF93DF9348
:101E5000EC01688179818A819B8161157105810519
:101E6000910521F464E279ED8BE597E02DE133EF04
:101E700041E050E00E94CB0F49015A019B01AC01A7
:101E8000A7EAB1E40E94EA0F6B017C01ACEEB4EF6B
:101E9000A50194010E94F80FC60ED71EE81EF91E78
:101EA000F7FE06C081E0C81AD108E10880E8F80A08
:101EB000C882D982EA82FB82C701B6019F77DF918F
:101EC000CF91FF90EF90DF90CF90BF90AF909F9019
:101ED0008F9008958F929F92AF92BF92CF92DF9290
:101EE000EF92FF92609104017091050180910601CB
:101EF00090910701611571058105910521F464E256
:101F000079ED8BE597E02DE133EF41E050E00E9461
:101F1000CB0F49015A019B01AC01A7EAB1E40E9431
:101F2000EA0F6B017C01ACEEB4EFA50194010E94B5
:101F3000F80FC60ED71EE81EF91EF7FE06C081E098
:101F4000C81AD108E10880E8F80AC0920401D092CA
:101F50000501E0920601F0920701C701B6019F77E3
:101F6000FF90EF90DF90CF90BF90AF909F908F90B9
:101F70000895609304017093050180930601909386
:101F800007010895FB01DC0102C005900D9241504C
:101F90005040D8F70895052E97FB1EF400940E9438
:101FA000E20F57FD07D00E94FD0F07FC03D04EF44F
:101FB0000C94E20F50954095309521953F4F4F4F2F
:101FC0005F4F089590958095709561957F4F8F4FE5
:101FD0009F4F08950E941F10A59F900DB49F900DD4
:101FE000A49F800D911D11240895B7FF0C94EA0F52
:101FF0000E94EA0F821B930B0895A1E21A2EAA1BDE
:10200000BB1BFD010DC0AA1FBB1FEE1FFF1FA217A8
:10201000B307E407F50720F0A21BB30BE40BF50BA5
:10202000661F771F881F991F1A9469F7609570952E
:10203000809590959B01AC01BD01CF010895A29FB1
:10204000B001B39FC001A39F700D811D1124911D8C
:10205000B29F700D811D1124911D0895EE0FFF1F79
:102060000590F491E02D09940F931F93CF93DF9384
:102070008230910510F482E090E0E0912405F09127
:10208000250530E020E0B0E0A0E0309799F421157C
:10209000310509F44AC0281B390B24303105D8F525
:1020A0008A819B816115710589F1FB01938382838C
:1020B000FE0111C0408151810281138148175907E7
:1020C000E0F04817590799F4109761F012960C93B5
:1020D000129713961C933296CF01DF91CF911F91E7
:1020E0000F9108950093240510932505F4CF211531
:1020F000310551F04217530738F0A901DB019A016D
:10210000BD01DF01F801C1CFEF01F9CF90932505A3
:1021100080932405CDCFFE01E20FF31F81939193AD
:102120002250310939832883D7CF2091220530915D
:102130002305232B41F420910A0130910B013093A8
:1021400023052093220520910801309109012115D2
:10215000310541F42DB73EB740910C0150910D016E
:10216000241B350BE0912205F0912305E217F307BC
:10217000A0F42E1B3F0B2817390778F0AC014E5FF7
:102180005F4F2417350748F04E0F5F1F509323050C
:1021900040932205819391939FCFF0E0E0E09CCFA4
:1021A000CF93DF930097E9F0FC01329713821282FC
:1021B000A0912405B0912505ED0130E020E01097B5
:1021C000A1F420813181820F931F2091220530914B
:1021D00023052817390709F061C0F0932305E09320
:1021E0002205DF91CF910895EA01CE17DF07E8F5C8
:1021F0004A815B819E0141155105B1F7E901FB83DD
:10220000EA8349915991C40FD51FEC17FD0761F47A
:10221000808191810296840F951FE90199838883BB
:10222000828193819B838A83F0E0E0E012968D9116
:102230009C9113970097B9F52D913C911197CD0181
:102240000296820F931F20912205309123052817B3
:10225000390739F6309751F510922505109224056B
:10226000B0932305A0932205BCCFD383C2834081C2
:102270005181840F951FC817D90761F44E5F5F4FD6
:1022800088819981480F591F518340838A819B819E
:10229000938382832115310509F0B0CFF093250592
:1022A000E09324059ECFFD01DC01C0CF1382128292
:1022B000D7CF81E090E0F8940C946E11FB01DC0123
:1022C00002C001900D9241505040D8F70895DC01B2
:1022D00001C06D9341505040E0F7089510E0C9E609
:1022E000D0E004C0FE010E942E102196CA36D1070C
:0622F000C9F7F894FFCFCE
:1022F600E602E602010000000000260580002A2A08
:102306002A2A2A2A382C0D0E131516191A1C2325CB
:1023160026292A2C3234000000008703E702140322
:10232600D40345032303370300000000750471043A
:102336006D046B085904840480047C043C042B045B
:10234600110400000000F4038707D207D0069C079B
:102356008905F5034705F504C604FD04FF08960440
:10236600C004BD04BA04B704B004C304AD04AA048F
:10237600A704A404A0049C049804960492048E0462
:102386008A04696E6974206661696C6564000D0A69
:08239600004100420043000079
:00000001FF
